:100000000C9481090C9463080C94D60718951895E4
:100010000C9491061895189518951895189518959B
:100020001895189518951895189518951895189568
:1000300018951895189518950C940006189518950C
:1000400018951895189518950C9493081895189567
:1000500018951895EB88E6AE8D2F6F8AEFAFE920E3
:1000600063CF496D446567406070787C7D0047616F
:10007000FB98F6BE9D3F7F9AFFBF8454946434245E
:1000800014740444140064000E00640000000000B6
:100090000E00640014006400000000000A00E80381
:1000A0000000000014002C0115002C0100000000CD
:1000B00014006400130064001200640000000000DB
:1000C00011002C0100002C0111002C0100002C015A
:1000D00011002C0100002C0111002C010000000077
:1000E000190096000000640019009600000000004E
:1000F0001100C8000000C8001100C8000000C800BE
:100100001100C8000000C8001100C8000000C800AD
:100110000D00C80000000000840090009C00A400B6
:10012000B000C000E000F0007A925A924A92BA936E
:10013000AA939A938A93502EE02FF0E080819181C8
:10014000A281B381009174001481011739F0052D4B
:10015000A1D1E52DF0E00481009374000481002317
:1001600061F00A95F1F10A9509F464C00A9509F461
:100170008AC00A9509F4AFC0D6C004E0702E4AE0E8
:1001800050E08C010E949309442E4AE050E08C011B
:100190000E949309C80120E030E0172D1A95042D24
:1001A00038D17A9461F787E017C04AE050E08D01BA
:1001B0000E949309442E4AE050E08D010E94930969
:1001C000D80120E030E0182F042D23D18A95843007
:1001D00008F4A9C0873049F720E030E017E009E1D2
:1001E000F4CFA4E04AE050E08C010E949309442E31
:1001F0004AE050E08C010E949309C80121E030E000
:100200001A2F1A95042D05D1AA9561F721E030E047
:1002100014E00AE0FED021E030E015E00BE0F9D078
:1002200021E030E016E00BE0F4D021E030E017E010
:1002300005E078C0A4E04AE050E08C010E949309F8
:10024000442E4AE050E08C010E949309C80122E04C
:1002500030E01A2F1A95042DDCD0AA9561F722E020
:1002600030E014E00AE0D5D022E030E015E00BE009
:10027000D0D022E030E016E001E0CBD022E030E048
:1002800017E002E04FC023E030E010E00CE0C1D006
:1002900023E030E011E00DE0BCD023E030E012E0DC
:1002A0000EE0B7D023E030E013E00FE0B2D023E05F
:1002B00030E014E000E1ADD023E030E015E00DE0E7
:1002C000A8D023E030E016E001E1A3D023E030E045
:1002D00017E002E127C024E030E010E00AE199D005
:1002E00024E030E011E00DE094D024E030E012E0B2
:1002F00001E08FD024E030E013E00BE18AD024E06D
:1003000030E014E009E185D024E030E015E009E1B7
:1003100080D024E030E016E009E17BD024E030E03A
:1003200017E009E176D0E52DF0E000850A9559F057
:100330000A9571F00A9589F00A95A1F00A95B9F02D
:100340000A95D1F01EC0248130E018E003E118C006
:10035000248130E018E004E113C0248130E018E08B
:1003600005E10EC0248130E018E006E109C02481D7
:1003700030E018E007E104C0248130E018E008E133
:1003800048D04424E52DF0E00581002311F400E875
:1003900010C0013011F408E00CC0023059F401859E
:1003A000002331F0E0E6828993898130904014F097
:1003B00000E2402EE0E60289138901301F072CF08D
:1003C00001501040028B138B07C0083F2FEF12071C
:1003D000BCF70AE0028BF38BE52D0781002341F087
:1003E000E0E6828993898130904014F0689440F867
:1003F000E52D0681002311F0689442F819E0042DE0
:100400002FD089919991A991B9914990599079905A
:100410000895112349F4422F432B61F450E0E02F5B
:10042000F0E0E059FF4F12C0153059F4422F432B32
:1004300041F4F4CF213040E0340781F32230340717
:1004400069F350E0E02FF0E0EC5AFF4F0491409147
:1004500074004217530721F4E12FE05AF0E00083C3
:10046000A89828E000FD969A00FF9698A99AA99866
:1004700006952A95B9F7A89AF0E0E12FE658FF4FC4
:10048000049108BB0FE017E201501040E9F700C0EB
:10049000000008959A928A927A926A925A924A92A7
:1004A000BA93AA939A938A939FB6F894C850602EF1
:1004B000E02FF0E04080518082819381EDE6F0E012
:1004C000A491A0936800A0936900E02FF0E004815C
:1004D000002351F00A9509F44EC00A9509F472C040
:1004E0000A9509F499C0BDC00DE6702E04E0802E77
:1004F0004AE050E082010E949309B42F4AE050E0A4
:1005000082010E9493092801EB2FEC5AFF4F0491BE
:10051000E72DF0E000837A948A9451F706E0402EAC
:1005200000E7502E26E04AE050E08C010E9493093B
:10053000B42F4AE050E08C010E949309C80110E0FA
:10054000421649F4E4E5F0E0EB0FF11F7C960491CC
:100550000093700008C0EB2FF0E0EC5AFF4F0491BD
:10056000E52DF0E000834A945A9404E04016D8F652
:10057000A093710076C08DE694E04AE050E08201DD
:100580000E949309B42F4AE050E082010E9493092F
:100590002801EB2FEC5AFF4F0491E82FF0E0008385
:1005A0008A959A9551F7EEE5F0E0049100936E007C
:1005B000EFE5F0E0049100936F0000937000E9E52F
:1005C000F0E04CC08DE694E04AE050E082010E94E9
:1005D0009309B42F4AE050E082010E949309280158
:1005E000EB2FEC5AFF4F0491E82FF0E000838A953F
:1005F0009A9551F7EEE5F0E0049100936E00EFE577
:10060000F0E0049100936F00E5E5F0E004910093C1
:100610007000E6E5F0E022C0E0E6F0E0049100932F
:100620006A00E1E6F0E0049100936B00E2E6F0E09E
:10063000149110936C00E3E6F0E0149110936D00B8
:10064000E4E6F0E0149110936E0000936F00E5E68D
:10065000F0E0049100937000E6E6F0E0049100936E
:100660007100A0E69BE0EA2FF0E0008108830181A1
:10067000098302810A8303810B8304810C83058132
:100680000D8306810E8307810F8383E04424BC2FF2
:10069000142DEB2FF0E00191BE2FE2DE439408E031
:1006A0004016B0F3E62DF0E000850A9559F00A9562
:1006B00071F00A9589F00A95A1F00A95B9F00A95AA
:1006C000D1F01EC0248130E018E003E118C024817D
:1006D00030E018E004E113C0248130E018E005E1C7
:1006E0000EC0248130E018E006E109C0248130E02A
:1006F00018E007E104C0248130E018E008E189DE59
:10070000B0E0E62DF0E00581002311F4B0E807C069
:10071000013011F4B8E003C0023009F4B0E20781FF
:10072000002309F0B1600681002309F0B46019E0EC
:100730000B2F96DE8A9509F0A9CFA3959A9509F01B
:1007400092CFC85F9FBE89919991A991B991499023
:10075000599069907990899099900895E5E7F0E033
:1007600002A513A5012B09F057C002811381063D94
:10077000114018F4FBBDFABD30C002811381043F63
:10078000114020F408ECFBBD0ABD27C00281138193
:10079000023122E0124020F404EF11E01BBDF4CF3F
:1007A000028113810033124018F408E52BBDECCF11
:1007B000028113810E34124010F40CEBF7CF02814A
:1007C00013810236124018F404E813E0E7CF0FEF6C
:1007D000FBBD0ABD03E00E9457090AB51BB50536EB
:1007E000104040F00AB51BB50C3D104018F404E071
:1007F00019E202C004EA16E0E5E7F0E002A713A759
:1008000000918800023019F001E00093AA009B9B40
:1008100003C001E40093AB000895E5E7F0E0048530
:100820001585043D1340B8F4208D318D0485158560
:100830002017310768F404851585021B130B20E08F
:1008400030E00E94FD094DE35AE067E57FE316C002
:1008500000E010E00895228D338D02851385201766
:100860003107B0F702851385021B130B20E030E03F
:100870000E94FD0942EB5DE963E171E401C070E4AF
:100880000E94AF0A0C94FF09E5E7F0E0248D358D56
:10089000068117812017310760F406811781021B3A
:1008A000130B20E030E00E94FD094DE75FE36DE0AF
:1008B000E6CF00E010E00895E5E7F0E0268D378D03
:1008C000008511852017310760F400851185021B12
:1008D000130B20E030E00E94FD094CEA5CE16AE085
:1008E000CECF00E010E00895E5E7F0E010A111FFA1
:1008F00010C011A11A9511A310919600112349F46B
:1009000010A11D7F10A31AB71F7B1ABF1BB710645D
:100910001BBF10A112FF10C012A11A9512A31091B3
:100920009700112349F410A11B7F10A31AB710627E
:100930001ABF1BB710621BBF10A113FF0AC013A17F
:100940001A9513A310919800112319F410A1177F81
:1009500010A310A113FD18C0819916C01091870033
:10096000123021F012891395128B02C0F093870088
:1009700010A1186010A310E11093980003E80E94E2
:10098000940006E00E945709089500E00ABB08EFB2
:1009900007BB03EC04BB00E701BB00E00BBB0CE0B2
:1009A00008BB05BB0FE002BB00E407B90FE806B9BE
:1009B00000E000BF0BB7006E0BBF05B70A6005BFB4
:1009C00004B70F7B04BF0FB5036A0FBD0EB50A60F5
:1009D0000EBD09B7006409BF06E005BD00E004BD17
:1009E00008E003BF00E002BF0CBF03E80E949400D0
:1009F0000E9472090093A8000E9474090093A70046
:100A000004EB10E0E5E7F0E000A711A700831183F5
:100A10007894369A10938A001093880010938B0074
:100A20000FE71AE126E0015010402040E1F700C036
:100A3000000008E024853585408D518D420F531FFD
:100A4000408F518F22853385428D538D420F531F26
:100A5000428F538F26813781448D558D420F531F0E
:100A6000448F558F20853185468D578D420F531FFA
:100A7000468F578F4FE35DE063E041505040604048
:100A8000E1F700C000000A95A9F6008D118D1695BA
:100A900007951695079516950795008F118F028D6E
:100AA000138D169507951695079516950795028F40
:100AB000138F048D158D1695079516950795169528
:100AC0000795048F158F068D178D1695079516952A
:100AD000079516950795068F178F04E00E94570912
:100AE000AF9800E000938900AE9A08954EDF17C0DA
:100AF00000E009BD08BDAF98AF9901E000938900FF
:100B000001E000938A0006E000938B0027DE03E8F3
:100B10000E9494009B9903C00AEF0093AB000091E0
:100B20008700043029F3E5E7F0E000A511A519BD21
:100B300008BD0081118120E030E00E94FD094FE9ED
:100B40005DEC6AE87EE30E94AF0A45E256E069EA9E
:100B50007FE30E94510A0E94FF09E5E7F0E0008B65
:100B6000118B03E80E94940000918700033019F470
:100B700000E00093870000918800013079F4AF9B7A
:100B80000DC0E5E7F0E02685378506E0039F102DD0
:100B9000029F002D110D44A555A50CC0E5E7F0E01E
:100BA0002685378506E0039F102D029F002D110D2D
:100BB00048E853E10E94930900938B00009187005D
:100BC000002371F40091A900002311F426DE11C066
:100BD000E5E704A90A9504AB04A515A506871787C0
:100BE00000918700013011F44FDE03C0023029F478
:100BF00063DEE5E7F0E006871787B0DD75DE8ACFB4
:100C0000FA93EA930A927A936A935A934A933A939D
:100C10002A931A930A930FB604B1E5E715B120E0C1
:100C200030E0F0E044A155A166A177A1400F511F2B
:100C3000621F721F44A355A366A377A300A911A93D
:100C40000F5F1F4F00AB11AB00A9013021E0114035
:100C500009F059C000AD005059F00A95A1F00A956D
:100C6000F1F00A9541F10A9591F10A95E1F145C03B
:100C700020AF01E407B905A116A137A1330F330B4B
:100C8000028713873AC002E000AF02E407B905A16A
:100C900016A137A1330F330B068317832EC003E051
:100CA00000AF03E407B905A116A137A1330F330B39
:100CB0000487158722C004E000AF04E407B905A14A
:100CC00016A137A1330F330B0087118716C005E03B
:100CD00000AF05E407B905A116A137A1330F330B07
:100CE000028313830AC030AF00E407B905A116A13F
:100CF00037A1330F330B00831183F4A3F5A3F6A3BD
:100D0000F7A3F0ABF1AB369A0FBE09911991299177
:100D1000399149915991699179910990E991F991A4
:100D20001895AA939A938A93FA93EA933A922A92FD
:100D30001A920A927A936A935A934A933A932A930D
:100D40001A930A93AFB70091A800E02FF0E010814A
:100D5000113089F4E091A700208131812150304089
:100D60002083318320813181232B29F412E0E02F6D
:100D700010830E941A09E5E7F0E002A513A5012BF4
:100D800031F002A513A50150104002A713A784A5B6
:100D900095A543DD8017910798F4009188000130F4
:100DA00079F4AF9800E0AF9901E00093890001E089
:100DB00000938A0006E000938B0005E00E9457092B
:100DC0002CDD0D37154184F000918800002361F47B
:100DD000AF9800E0AF9901E00093890001E0009333
:100DE0008A0007E00E9457090091AE00102F13956A
:100DF0001093AE001091AC00101708F091C0009154
:100E00008800023009F089C0AF9B87C080E0E5E729
:100E1000F0E004A515A5043F114068F4FEDCE5E709
:100E2000F0E024A535A5021B130B0E9479090330BD
:100E300010400CF081E0E5E7F0E004A515A5003DC9
:100E4000174090F404A515A5043F114068F0E5DCB7
:100E5000E5E7F0E024A535A5021B130B0E947909F4
:100E6000053110400CF081E0E5E7F0E004A515A5A0
:100E7000003D174060F0D1DCE5E7F0E024A535A5A2
:100E8000021B130B0E947909033310401CF480FBF2
:100E90000EF043C0E5E7F0E084A595A5BEDC801721
:100EA000910740F4E5E7F0E000A511A501501040DE
:100EB00000A711A7B2DCE5E7F0E026A537A544A519
:100EC00055A50417150758F400A511A520173107DB
:100ED00030F000A511A50F5F1F4F00A711A700A5B7
:100EE00011A50217130730F0AF9B04C001E0009377
:100EF0008C0002C0F0938C0090DCE5E7F0E024A5C4
:100F000035A5021B130B0E9479090931104014F416
:100F10000CE301C00AE00093AC0000E00093AE00D7
:100F2000E5E7F0E0008111818091AB0090E020E0E6
:100F300030E00E94FD0946E656E666E87FE30E943F
:100F4000AF0A0E94FF09E5E7F0E020A531A5021BEA
:100F5000130B0E94790980179107ACF40091AA0045
:100F6000002389F0AF9800E0AF9901E00093890079
:100F700001E000938A0024E630E00EE00E94E208DF
:100F800004E000938700AFBF09911991299139912D
:100F900049915991699179910990199029903990C5
:100FA000E991F99189919991A9911895AA939A93A8
:100FB0008A93FA93EA933A922A921A920A927A932D
:100FC0006A935A934A933A932A931A930A93AFB720
:100FD000009188000023D9F4E5E7F0E0809934C05F
:100FE00000A511A50C3F134008F060C000A511A595
:100FF0000C5F1F4F00A711A700A511A50F351140C9
:1010000008F0AE9828E030E004E10E94E208009188
:101010008800002309F44AC0E5E7F0E0809929C080
:1010200004A515A507351341F0F504A515A504364B
:10103000104004A515A5D0F00E5C1F4F04A715A7FE
:1010400028E030E00EE12DC080A591A584309040CD
:1010500068F100A511A50450104000A711A700A534
:1010600011A50C32114070F6AE9ACCCF0E5F1F4F17
:1010700013C004A515A50536104028F004A515A534
:1010800002531040DBCF84A595A58430904058F0E2
:1010900004A515A50250104004A715A728E030E0CC
:1010A00000E20E94E20806E90093A9000CE8009320
:1010B000AB0005EF15E0E5E7F0E002A713A70AB7DC
:1010C0000F770ABF60CFFA93EA932A931A930A9391
:1010D0002FB70FE91FE001501040E9F700C00000F2
:1010E000E5E7F0E003890230A1F4F38B01E005AB02
:1010F000AF98F48B00A1026000A30CE001A30BB732
:101100000F7B0BBF2FBF099119912991E991F9919B
:1011100018950395038B023049F700A511A506A782
:1011200017A7F5ABE5CF8A93FA93EA933A922A92FE
:101130001A920A927A936A935A934A933A932A9309
:101140001A930A938FB70FE91FE001501040E9F797
:1011500000C0000010E0AF9911E001E0102710FB83
:1011600015B317F915BB00E0AF9901E000938900B2
:1011700000E000938A0000938B0000918900002317
:1011800011F000E001C001E00E945709E5E7F0E03E
:1011900000A1046000A304E1009397000BB70F7D4A
:1011A0000BBF8FBF0991199129913991499159919B
:1011B000699179910990199029903990E991F99163
:1011C000899118958A938FB7F894402F8901232B22
:1011D00059F408E203BFBB9800E00093B300EFEAC4
:1011E000F0E00083018323C02091B3002223F9F4AF
:1011F000BB9A20E022BF21E02093B300442321F4D6
:1012000028E223BFBB9803C04CBF2CE123BF20E0E2
:1012100030E00E94FD0946EF58E26CE97EE30E944F
:10122000AF0A0E94FF09EFEAF0E0008311838FBF4D
:1012300089910895BA93AA938A938FB7F8940091ED
:10124000B300023079F50091B400013039F5B0E017
:10125000A1EBED91FC910091B50014E0019FE00D30
:10126000F11D3296059114913197012B00E049F45C
:101270000093B4000093B5000093B30020E030E089
:1012800010C00093B30025913491339705919ADFF4
:10129000EFEAF0E006810395068304C020E030E029
:1012A00000E090DF8FBF8991A991B99108958A9349
:1012B0008FB7F89412E0019FF001E85EFE4F0591B0
:1012C00014910093B1001093B20000E00093B500B8
:1012D00001E00093B40002E00093B300ABDF8FBFE6
:1012E0008991089503EB08950FEA08950000889509
:1012F000FECF11231AF41195019510409801890130
:10130000089505EF0DBF00E00EBFC6EDD0E00E94CE
:101310001A0B002311F00E942A0B0E9476050E94EE
:1013200076090C94760900241124EFE0001F111FA8
:10133000001C111C0416150610F0041A150AEA9573
:10134000AAF7001F111FA0010095109508954A9556
:101350002AF03695279517950795F9CF089530957A
:101360002095109501951F4F2F4F3F4F0895FF2750
:10137000112477FB660F771F089409F4771F679590
:1013800017F8EE27002437FB220F331F089409F4C7
:10139000331F279507F8089527FD0EC0EE0F001F95
:1013A000111F221F3A953230B8F7332319F427FD65
:1013B00031E002C027FF30E0E03821F400FF08945C
:1013C0000EF488940F4F1F4F2F4F3F4F323038F499
:1013D000332319F427FD31E002C027FF30E03F3FFF
:1013E00029F0220F000C379527950895A4C0E02F0F
:1013F000012F122F232F3EE9D6CF0024F8CFC1DFD3
:10140000432F4F5748F04F3148F007FC8EC03FE75D
:101410002FEF1FEF0FEF0895332789C0322F212FB1
:10142000102F0E2F4F5141950E94A70907FE0895D6
:101430000C94AF09F901EE0FFF1F37FBFF3F31F0AE
:10144000EF2BE12BE02B8894B8940895E02BE12B4F
:1014500021F008949894B8940895989488943894B6
:101460000895FB01EE0FFF1F77FBFF3F31F0EF2BDD
:10147000E52BE42B8894B8940895E42BE52B69F3CD
:10148000E8CFEFDF68F021F43723262F8A01089593
:10149000372FFBCFE6DF20F00BF008957327EAF734
:1014A0004EC0C8DFE8F3B3F361F3DBDFC8F383F3C7
:1014B000A1F35DDF401751076207730731F4011490
:1014C00011F10024E89488942BC078F0332E372F44
:1014D000732D322E262F632D312E152F532D302EA6
:1014E000042F432D302C012C132C371739F066951F
:1014F00057954795F795E0407395F7CFE7FBEE0FCB
:10150000E0E010246AF0EF0F041F151F261F60F49F
:10151000279517950795E79508F46894339543CF79
:10152000EF0B040B150B260B3ECF302D3078222706
:101530001127002708953FE7302920E8F9CF3FEF32
:101540002FEFF6CF8EDFD8F3D1F3707837270895D9
:1015500088DFA8F3A3F3F9CF3078372796CF6ADF77
:1015600070F383F3A9F37DDF50F3B3F3A9F3FFDE48
:101570000124E8943F57E040370FEF1F12F0D9F6EF
:1015800003C03A3E90F26894E0E00A92AA933A933C
:10159000AA27332422243327049FF001059FF00D4E
:1015A000712D731F149FF00D711D221C069F700D6D
:1015B000211C331C159F700D211C331E249F700DA0
:1015C000211C331E169F200C311CAA1F259F200CA6
:1015D000311CA31F269F300CA11D39915EF4339559
:1015E000A695379427947795F795E79533953130FD
:1015F000BCF316C0AA2322F0332351F4339510C054
:10160000339571F4A991099096CFA7FD09C03A9539
:10161000EE0FFF1F771F221C331CAA1F3230A8F7C2
:10162000E894FE2B09F068942A2F8101E72FA991F5
:101630000990C2CE01E0089520E006D0E9F70895B0
:10164000259102D0E9F708952D9301501040202FE5
:10165000212B089588E896E1FC0105911491FC0185
:101660003296A591B491FC01349625913491422F84
:10167000432B19F0F901E4DF01C0DEDF069616E125
:101680008439910748F308954F00600094160700CD
:10169000AF0000000000000000000000000000009B
:1016A0000000000000000A0005000000000000002B
:1016B000000000000000000000000000000000002A
:1016C000000000000000000000000000000000001A
:1016D000000000F505F401B4000000000000001E49
:0316E0000A0000FD
:00000001FF
:00000001FF
